:100000000C9434000C943E000C943E000C943E0082
:100010000C943E000C943E000C943E000C943E0068
:100020000C943E000C943E000C943E000C943E0058
:100030000C943E000C943E000C943E000C943E0048
:100040000C943E000C943E000C943E000C943E0038
:100050000C943E000C943E000C943E000C943E0028
:100060000C943E000C943E0011241FBECFEFD8E04C
:10007000DEBFCDBF0E9440000C94A4000C94000091
:100080008FEF84B987B98FED8AB9E6E773E567E644
:100090005DE643E03FE320E289B181110FC028B95A
:1000A0008FE79CE00197F1F700C0000018B8AFE5BA
:1000B000BAEE1197F1F700C00000EECFE5B9BFEF3F
:1000C000F9E688E1B150F0408040E1F700C000005F
:1000D00075B99FEFA9E6B8E19150A040B040E1F7B3
:1000E00000C0000065B9FFEF89E698E1F15080405B
:1000F0009040E1F700C0000055B9AFEFB9E6F8E174
:10010000A150B040F040E1F700C0000045B98FEFCA
:1001100099E6A8E181509040A040E1F700C00000BE
:1001200035B982E290E028B9A7E7B5E01197F1F779
:1001300000C0000018B8AFE5BAEE1197F1F700C0A3
:0C0140000000019781F7A8CFF894FFCFD2
:00000001FF
