S00D0000726F6B65742E73726563F2
S11300000C9434000C943E000C943E000C943E007E
S11300100C943E000C943E000C943E000C943E0064
S11300200C943E000C943E000C943E000C943E0054
S11300300C943E000C943E000C943E000C943E0044
S11300400C943E000C943E000C943E000C943E0034
S11300500C943E000C943E000C943E000C943E0024
S11300600C943E000C943E0011241FBECFEFD8E048
S1130070DEBFCDBF0E9440000C94A4000C9400008D
S11300808FEF84B987B98FED8AB936E743E557E630
S11300906DE673E0EFE320E289B181110FC028B966
S11300A08FE79CE00197F1F700C0000018B8AFE5B6
S11300B0BAEE1197F1F700C00000EECF35B9BFEFEB
S11300C0F9E688E1B150F0408040E1F700C000005B
S11300D045B99FEFA9E6B8E19150A040B040E1F7DF
S11300E000C0000055B9FFEF89E698E1F150804067
S11300F09040E1F700C0000065B9AFEFB9E6F8E160
S1130100A150B040F040E1F700C0000075B98FEF96
S113011099E6A8E181509040A040E1F700C00000BA
S1130120E5B982E290E028B9A7E7B5E01197F1F7C5
S113013000C0000018B8AFE5BAEE1197F1F700C09F
S10F01400000019781F7A8CFF894FFCFCE
S9030000FC
